:080000000C944A000C9400006E
:100008000C9400000C9400000C9400000C94000068
:100018000C9400000C9400000C9400000C94000058
:100028000C9400000C9400000C9400000C94000048
:100038000C9400000C9400000C9400000C94000038
:100048000C9400000C94B8000C9400001027E803EE
:1000580064000A0001000010000110000100000007
:100068005472616E736D69747465643D25640052E1
:10007800656365697665643D2564000080C001009C
:10008800020066000200700284000000F894EE2767
:10009800ECBBF1E0F5BFE5BF8DE0A2E0BB27ED9337
:1000A8008A95E9F780E098E0A0E6ED930197E9F7F3
:1000B800E6E8F0E085919591009761F0A591B591FA
:1000C80005901590BF01F00105900D920197E1F799
:1000D800FB01F0CFEFE5EDBFE8E0EEBFC0E6D2E010
:1000E8000C944901E0E0E1B9E0E2E0B90895AA938F
:1000F800A981A03019F4A881A03099F1662444247C
:10010800798058809A80E89423F8E981E03011F4E6
:10011800689401C0E89420F8E5EAE6BFE981E03098
:1001280069F0E89422F822FC02C023FE01C001C055
:10013800FACF23FE03C0E0E00C940B02E881E03024
:1001480069F0E89421F821FC02C023FE01C001C037
:10015800FACF23FE03C0E0E00C940B02E1E00C941C
:100168000B02E1E00C940B02AA93BA93EA93FA9378
:10017800EFB7EA931A93E1B1E87F1E2FF0E0E83079
:10018800A0E0FA0721F0E031A0E0FA0761F420FCD2
:1001980003C0E92DEE0F03C0E92DEE0FE160E3B9CE
:1001A800E5E8E6BF6AC0E831A0E0FA0741F4671461
:1001B80028F40E94FC0311F4689422F85EC0E0342D
:1001C800A0E0FA0741F4E1E0E51511F4E5E801C023
:1001D800E5ECE6BF52C0E035A0E0FA07D1F4E52D22
:1001E800F0E03297A42DB0E0AE17BF0724F40E94C8
:1001F8000704E5EC0BC0E52DF0E03297A42DB0E044
:10020800EA17FB0729F40E940704E5E8E6BF4394D0
:1002180034C0E832A0E0FA07A1F4671430F40E9471
:10022800FC0311F4689422F80BC0552019F4E5E991
:10023800E6BF06C0552021F0E5EAE6BF689420F83D
:100248001CC0E835A0E0FA0739F40E940704E5E984
:10025800E6BF689421F811C0E032A0E0FA0721F067
:10026800E033A0E0FA0709F404C0E834A0E0FA0794
:1002780021F4E5E9E6BF689423F81991E991EFBF05
:10028800F991E991B991A9911895E0E0EABBEBBB26
:10029800E7BBE8BBE4BBE5BBE1BBE2BBE3BFE2BF56
:1002A800ECBFEFBDEEBDEDBDECBDE7BDE6BDEBBD02
:1002B800EABDE9BDE8BDE2BDE5BDE4BDE3BDE9BF1A
:1002C800E5BFE4BFEBB9E8E1EAB9E6E8E0BDE0E0A4
:1002D800E0BDE3E3E9B9E0E8E8B9E0E0E0BFE6B9AA
:1002E800EDB900DFA0E195D078946097E0916802BD
:1002F800EF5FE0936802E1E0EA93EA93A1E0F7DEBA
:10030800E030C9F3FE01FA93EA93E8E6F0E0FA93E5
:10031800EA93E09168020E940E0449D0E0E0EA9373
:10032800A1E00E941804FE01FA93EA93E7E7F0E0DF
:10033800FA93EA93E09160020E940E04E0E0EA93E7
:10034800A0E00E941804A4E6B0E00E94570460965A
:10035800CCCFFFCFAA93EBB3EF70AE2FE881E07F4D
:10036800EA2BEBBB8DE08A95F1F7DA9A8DE08A9556
:10037800F1F7DA988DE08A95F1F777C0AA93A8810A
:10038800E9DFE881E295E883A881E4DF85E88A95DA
:10039800F1F76BC0AA93E881F0E0E059FD4FE081E6
:1003A800A981AE0FEBDF8980B88022960895A2E07C
:1003B8000E941D04ACE0E2DFA1E00E941D04E0E021
:1003C800BE2E8E2E0895AA93A881AA3011F08A1401
:1003D80048F0E0E0EA93B394AB2DDCDFA881AA30C3
:1003E80009F443C08394D89AA881C8DFD8983DC03F
:1003F800BA93AA931A93A981BA81ED91A983BA8372
:100408001E2FE03019F0A12FDEDFF5CF18812396DB
:100418000895AA93EAB3E06FEABBD29AD09AD19A28
:10042800DA98D898D998A880E881E058E0937202C1
:10043800E881E054E0937302A4E1B0E00E9457041D
:100448000E9423040E9423040E942304A0E282DF66
:1004580088EC90E00197F1F7A8E290DFA4E08EDF46
:10046800A5E88CDFA6E08ADFA2DF21960895BA937B
:10047800AA931A930A93AA81BB8112960E946904CF
:10048800309759F1AA81BB8114960E9469048F01A3
:10049800309761F00230E0E01E0798F0F8013197DC
:1004A8008F01AA81BB811496ED93FC93AA81BB812D
:1004B8001296ED91FD913196FE93EE933197AC81B2
:1004C800A083AA81BB810E946904FF232AF0ED91D1
:1004D800FD913196FE93EE9306C0AA81BB81EFEFA2
:1004E800FFEFED93FC931981088125960895BA933F
:1004F800AA9326970E94760410E0AC85BD85E0E0BB
:10050800F0E0ED93FC93EA89FB893196EA8BFB8B4B
:100518003197E4912E2FE03009F415C1E12FE03036
:1005280039F4253211F411E002C00E942B040AC1EB
:10053800E130A9F4253219F40E942B0402C112E01B
:1005480040E000E02D3211F401E0FCC02B3211F440
:100558004BE2F8C0203211F440E2F4C002C0E230AD
:1005680039F450E013E0203311F40068EBC003C005
:10057800E33009F0E7C0203310F02A3308F007C051
:10058800AAE05A9F502DE22FE0535E0FDBC0E22F06
:10059800E33649F40E943204E889F989A481AA93D0
:1005A8000E943804CEC0E33741F40E9432040E940E
:1005B8003E040E94E3031E2F0AC0E03761F40E9444
:1005C80032040E943E040E94EF031E2F086002605E
:1005D8000F7730E034C0E43611F0E93611F40460E6
:1005E80002C0E53731F4E4E5F0E0EE83FF8315E07F
:1005F8000CC0E83511F4086003C0E83709F0A1C061
:10060800EEE5F0E0EE83FF8314E002FF14C00E94E1
:1006180032040E944804AB85AA233AF4EA85FB8594
:100628000E946504EA87FB874DE2403011F01F5FA6
:1006380001C00B7F04C00E9432040E94480400FDE0
:1006480011C0151778F407FF08C002FF04C00B7F1C
:10065800242F115001C020E301C020E20E942B0486
:100668005150EFCF312F01FF17C03030A1F003FFF9
:1006780006C0EE81FF812591EE83FF8305C0AE8120
:10068800BF812D91AE83BF830E942B04503009F0A7
:1006980051503150EACF4BC020E3EE81FF810E94D8
:1006A8006D04E887F987EE81FF813296EE83FF8338
:1006B800E885F985AA85BB85AE17BF0750F02F5F7F
:1006C800A885B985EA85FB85EA1BFB0BEA87FB87CA
:1006D800EFCF2A3328F003FF02C0295F01C0295D4C
:1006E80004FD1AC0213320F4A885B985119709F4AF
:1006F80009C0531710F000FF01C013C020E207FF24
:100708000BC020E3006102FF07C00B7F4A930E94E1
:100718003804503009F051500E942B04503009F031
:1007280051503150A885B985129708F0B5CF00FF10
:1007380008C0503031F05150E0E2EA930E9438048A
:10074800F8CF10E0E0CEAC85BD850E9469040E9418
:100758007D0464960895FF92F82E26970E947804E7
:100768000E945004309719F4EFEFFFEF23C0DE0129
:1007780016960E9461048D010E945004EE83FF8347
:10078800E0E0E887E987DE011A960E9461040E948A
:100798006904FA93EA931A930A93EBE3F2E0FA9363
:1007A800EA93DE011A96A3DE9F01AE81BF81E0E0E5
:1007B800EC93F9010E947F042A96FF900895BA935A
:1007C800AA93A991B991EE27FF276D91662311F09D
:1007D8003196FBCF0895BA93AA93AA27BB27E9912C
:1007E800F9910590002011F01196FBCFFD010895B5
:1007F800E62DF0E0E859FD4FE081E3B96394E5E8C0
:10080800E6BF76140895A42DB0E0A05ABD4FE3B119
:10081800EC930895FF27662777270E94710484E0E8
:100828000E94AF03289608950E94CE01DE010C9421
:10083800FC010E94C201A3E0B0E00C945704A0E3BD
:100848000E94AE0188EC90E00197F1F708952A9391
:10085800AD85BE85EF85F88909950895E889F989F8
:100868003497E88BF98B0895AD85BE85EF85F889B7
:1008780009950895A889B98914960E946904EE8398
:10088800FF83AE81BF810895A889B98914960E9413
:100898006904EA87FB870895DE011C960E946104BB
:1008A8000E9469040895109639F080ED97E0019749
:1008B800F1F7A8951197C9F708950024AF0DB01D59
:1008C8000895F195E195F0400895ED91FC91119707
:1008D80008950590F491E02D08957A936A93FA9318
:1008E800EA9308955A934A933A932A931A930A9348
:1008F80008955D814C813B812A8119810881089581
:00000001FF
